:020000022000DC
:1060000000000420616E0300A16E0300A36E030074
:10601000A56E0300A76E0300A96E03000000000038
:106020000000000000000000000000007994030060
:10603000AD6E03000000000099940300B16E0300F0
:10604000ED950300B36E0300B36E0300B36E03005F
:10605000B36E0300B36E0300B56E0300B36E0300AE
:10606000B36E0300B36E0300B36E0300B36E0300A0
:10607000B36E0300B36E0300B36E0300B36E030090
:10608000B36E0300C9910300050F0300B36E030054
:10609000B36E0300B36E030081FC0200B36E030015
:1060A000B36E0300B36E0300B36E0300B36E030060
:1060B000B36E0300B36E0300000000000000000098
:1060C000B36E0300B36E0300B36E0300D59B0300F1
:1060D000B36E0300B36E0300B36E0300498D02007C
:1060E000B36E0300B36E0300B36E03000000000044
:1060F00000000000B36E0300000000004D9C030090
:10610000000000000000000000000000000000008F
:10611000000000000000000000000000000000007F
:10612000000000000000000000000000000000006F
:10613000000000000000000000000000000000005F
:10614000000000000000000000000000000000004F
:10615000000000000000000000000000000000003F
:10616000000000000000000000000000000000002F
:10617000000000000000000000000000000000001F
:10618000000000000000000000000000000000000F
:1061900000000000000000000000000000000000FF
:1061A00000000000000000000000000000000000EF
:1061B00000000000000000000000000000000000DF
:1061C00000000000000000000000000000000000CF
:1061D00000000000000000000000000000000000BF
:1061E00000000000000000000000000000000000AF
:1061F000000000000000000000000000000000009F
:10620000F1EE103A43F08073E1EE103A704700BFB0
:1062100010B5054C237833B9044B13B10448AFF3E0
:1062200000800123237010BD7C830020000000004B
:10623000C45E040008B5034B1BB103490348AFF328
:10624000008008BD0000000080830020C45E0400C0
:10625000154B002B08BF134B9D46A3F5803A002138
:106260008B460F461348144A121A19F035FC0F4B8F
:10627000002B00D098470E4B002B00D098470020F1
:10628000002104000D000D48002802D00C48AFF397
:10629000008019F0B7FB2000290014F0E1FB19F091
:1062A0008BFB00BF0000080000000420000000007D
:1062B000000000007C830020E0BA00200000000005
:1062C0000000000033DF7047014B1878704700BFB3
:1062D0006185002010B5014688B00D4C0D4809F0CD
:1062E000C7FC002320226946CDE90033CDE9033302
:1062F000CDE905330293079307F02EFE06492046A9
:1063000014F000FA6946204614F05AFA08B010BD9D
:106310002887002050940020882F040038B5084CAE
:106320000D462046074914F0EDF929462046102273
:1063300014F02AFB20460449BDE8384014F040BA66
:1063400028870020982F0400B42F040010B5054BB7
:106350000446084603EB4421144619F095FB2046F9
:1063600010BD00BF0C60002010B5044B144603EBB9
:10637000402019F089FB204610BD00BF0C600020B2
:10638000704700BF70B5002182B00920244C14F082
:1063900015F90321234801F073FA44F001044FF486
:1063A000C850A04700211F4801F06AFA05464FF483
:1063B000F060A0470121092014F000F94FF4F060CB
:1063C000A0470021092014F0F9F80421154801F034
:1063D00057FA4FF4C850A0470021124801F050FA74
:1063E00006464FF4F060A0470121092014F0E6F8BA
:1063F0004FF4F060A0472A0648BFEDB27F21330674
:106400006FF07E0330461A4648BFF0B2009114F098
:10641000EBFA054A054BC0B210601D6002B070BDBA
:106420008031040004870020A8830020A08300207E
:1064300030B52DED028B012183B0242014F0BEF87D
:10644000022013F0D9FF0C2013F0D0FF012010F030
:106450007FFD394B394D186813F0FEFF08EE100A26
:10646000002013F0C9FF0A2013F0C0FF00212420F0
:1064700014F0A4F8B8EE488ADFED317A9FED317A56
:1064800068EE277AB4EEC78AF1EE10FAC5ED007A0D
:1064900048D49FED2D7AB4EEC78AF1EE10FA32D4CB
:1064A0009FED2A7ADFED2A6A77EEC77AB2EE047A98
:1064B000A7EEA67AFCEEC77ACDED017A9DF80430FE
:1064C000244C25492548237014F01CF9286819F03C
:1064D0004BF841EC100B0221204814F041F92049FF
:1064E0001E4814F00FF921781C480A2214F044FACF
:1064F0001C491A4814F064F92378092B14D903B005
:10650000BDEC028B30BDDFED186A9FED187A77EE97
:10651000E67A67EE877AFCEEE77ACDED017A9DF8B0
:106520000430CDE70023CBE7114803B0BDEC028B6C
:10653000BDE8304001F000BA10800020FC86002049
:106540000030C03FA95D094589DA15450000614565
:106550009A99193E00870020C42F04002887002044
:10656000CC2F0400D42F040000404E458988083DFC
:10657000CC85002070B51C4C1C4A63880121117029
:106580006BB300252646A9B24FF47F02304601F0D6
:106590006DFD304601F0D4FA322010F0D9FC63884A
:1065A0000135AB42EFDC124A12780A2A00D870BDDE
:1065B00083B10D4E0025A9B20022304601F056FDF0
:1065C000304601F0BDFA322010F0C2FC638801357C
:1065D000AB42F0DCBDE87040064801F0CBB9044B9B
:1065E0001B780A2BF6D870BD64850020F485002046
:1065F00000870020CC8500202DE9F041204C214F60
:10660000214E4FF47F020021012520463D7001F00C
:106610002DFD204601F094FA322010F099FCFF2263
:106620002946204601F022FD204601F089FA322059
:1066300010F08EFC154A336812682B44B3EB420FFE
:10664000336001DABDE8F081114801F093F9638805
:1066500083B10025A046A9B20022404601F006FD04
:10666000404601F06DFA192010F072FC6388013584
:10667000AB42F0DC002333603B70BDE8F08100BF2B
:1066800064850020F4850020AC8400200460002094
:10669000A485002070B52F492F48304E304D14F09E
:1066A0008FF8304B0024042126201C7013F002FFC9
:1066B00004210B2013F0FEFE0421162013F0FAFE35
:1066C0000421212013F0F6FE0421082013F0F2FE2D
:1066D0000421182013F0EEFE234801F04BF9234863
:1066E00001F048F9224801F045F92146092013F04C
:1066F00065FF30468D2101F0C3F80221304601F0DC
:10670000BFF845F001054FF4F060A84701210920CA
:1067100013F054FF4FF4F060A847304601F034F80E
:1067200021462D2013F0C6FE21460A2013F0C2FE9A
:106730002146092013F0BEFE21460D2013F03EFF36
:10674000642010F005FC0B4B0122BDE870401A706C
:10675000FFF7B8BDD82F0400288700200487002049
:106760008031040061850020A4850020708600200F
:10677000CC85002098830020214B1B78062B05D860
:10678000DFE803F01A2104282F3613001D4A13787E
:1067900003F0E3031C49097819B143F002031370B5
:1067A000704703F0FD0313707047164A137823F007
:1067B000040343F01803EDE7124A137823F018039B
:1067C00043F00403E6E70F4A137823F0140343F081
:1067D0000803DFE70B4A137823F0100343F00C03A0
:1067E000D8E7084A137823F00C0343F01003D1E7ED
:1067F000044A137823F0080343F01403CAE700BFE8
:106800000D800020086000206085002070B5002108
:106810008E4C8F4D2B2013F04DFE0121092013F0DB
:1068200049FE204600F06CFF2046012100F0B4FF35
:106830002046032100F0CEFF2046402100F0E8FF73
:10684000642010F085FB0121092013F0B7FE14200D
:1068500010F07EFB0021092013F0B0FE642010F040
:1068600077FB0121092013F0A9FE142010F070FB22
:106870000021092013F0A2FE0021092013F09EFE42
:106880002046BA2100F0FCFF5A21204645F00105C0
:1068900000F0F6FF4FF4F060A8470121092013F043
:1068A0008DFE4FF4F060A847642010F051FBFFF715
:1068B00063FF684B00211E78092013F07FFE2046FD
:1068C0008D2100F0DDFF3146204600F0D9FF4FF466
:1068D000F060A8470121092013F070FE4FF4F0602A
:1068E000A8470021092013F069FE2046C12100F0CD
:1068F000C7FF0021204600F0C3FF4FF4F060A84717
:106900000121092013F05AFE4FF4F060A84700213E
:10691000092013F053FE2046A22100F0B1FF002110
:10692000204600F0ADFF4FF4F060A8470121092098
:1069300013F044FE4FF4F060A8470021092013F043
:106940003DFE2046B52100F09BFF2621204600F0A9
:1069500097FF4FF4F060A8470121092013F02EFEA5
:106960004FF4F060A8470021092013F027FE2046CD
:10697000942100F085FF3021204600F081FF4FF484
:10698000F060A8470121092013F018FE4FF4F060D1
:10699000A8470021092013F011FE2046982100F09D
:1069A0006FFF3021204600F06BFF4FF4F060A847E6
:1069B0000121092013F002FE4FF4F060A8470021E6
:1069C000092013F0FBFD2046C32100F059FF0121EF
:1069D000204600F055FF4FF4F060A8470121092040
:1069E00013F0ECFD4FF4F060A8470021092013F0EC
:1069F000E5FD2046C02100F043FF0121204600F0C4
:106A00003FFF4FF4F060A8470121092013F0D6FDA5
:106A10004FF4F060A8470021092013F0CFFD204675
:106A2000822100F02DFF0021204600F029FF4FF4C5
:106A3000F060A8470121092013F0C0FD4FF4F06079
:106A4000A847BDE87040642010F082BA0487002097
:106A50008031040008600020F8B5394B1C7884F0C0
:106A600001041C706CB9374F3B68012B0AD0022B14
:106A70004FD01EDC00233B603348BDE8F84000F0F7
:106A800079BFF8BD314D6B887BB12E46A1B2FF2294
:106A9000304601F0EBFA304601F052F8192010F0C0
:106AA00057FA6B880134A342F0DC294800F044FF18
:106AB000E0E7264D6B8883B12E46A1B24FF6FF72F8
:106AC000304601F0D3FA304601F03AF8192010F0C0
:106AD0003FFA6B880134A342EFDC1D4800F02CFF25
:106AE0001C4A1378062B9ABF0133DBB20023002126
:106AF0000D20137013F062FD642010F029FA0121BB
:106B00000D2013F05BFD642010F022FAFFF77EFEEB
:106B1000B0E70E4D6B88002BC7D02E46A1B24FF4C4
:106B20007F42304601F0A2FA304601F009F8192000
:106B300010F00EFA6B880134A342EFDCB5E700BF1A
:106B4000998300209C8300207086002064850020AB
:106B5000A48500200D80002070B52C4D2C4C2D4EAE
:106B600028460022012108F039FE1022284609217A
:106B700007F03EFC2846042108F0EEFF284626498F
:106B800007F040FC2846254907F03EFC20462449F2
:106B9000072209F0CBF809222249204609F0C2F861
:106BA000204609F0FDF82049204805F5C86413F097
:106BB00007FE304609F09AF90621204606F07EF9D4
:106BC000204606F063F9204640F2C23106F08AF909
:106BD0003146204606F016F91549284608F094FF7C
:106BE000204606F025F92046012106F0AFF920469F
:106BF000F422202106F0A6F920461E2106F0A0F975
:106C000020460021BDE8704006F00CBA50940020E8
:106C1000B0830020F8830020D56202001D630200CB
:106C2000EC2F0400F42F040000300400288700201B
:106C3000E02F040010B56C480AF0A4F8002840F0DA
:106C4000C18069480AF0D2F8002840F0AE80674859
:106C50000AF098F8002840F09B8064480AF0C6F8D3
:106C6000002840F0888062480AF08CF8002873D130
:106C70005F480AF0BBF8002869D15E480AF082F844
:106C8000002857D15B480AF0B1F8002845D15A488E
:106C90000AF078F8002833D157480AF0A7F810BB5B
:106CA00056480AF06FF888B954480AF09FF800B9BE
:106CB00010BD5349534813F083FD534A5349137889
:106CC00023F0100301201370087010BD50494D4887
:106CD00013F076FD4C4A4D491378012043F0100320
:106CE00013700870E0E74B49464813F069FD464AC7
:106CF00046491378012023F0080313700870CFE78A
:106D00004549404813F05CFD3F4A40491378012053
:106D100043F0080313700870BEE74049394813F088
:106D20004FFD394A39491378012023F004031370C9
:106D30000870ACE73A49334813F042FD324A334910
:106D40001378012043F00403137008709AE7354963
:106D50002C4813F035FD90E733492A4813F030FDF5
:106D6000324B1B78002B83D1314C2368002B35D05C
:106D7000013323607CE72F49224813F021FD224A8A
:106D800022491378012023F00203137008706AE788
:106D900029491C4813F014FD1B4A1C491378012093
:106DA00043F002031370087057E72449154813F0A5
:106DB00007FD154A15491378012023F001031370CC
:106DC000087044E71E490F4813F0FAFC0E4A0F49B9
:106DD0001378012003431370087032E7194800F05C
:106DE000ABFD2368C4E700BFE884002004850020D1
:106DF000208500203C850020B0840020CC84002029
:106E0000183104002887002058850020598500206B
:106E100000310400E8300400D4300400BC30040029
:106E2000A4300400903004007C300400F48500207D
:106E30009C830020643004004C3004003430040093
:106E40002030040070860020F0B52DED028B01216A
:106E500083B0242013F0B2FB022013F0CDFA944C3F
:106E6000944D0C2013F0C2FA012010F071F8206844
:106E700013F0F2FA002013F0BFFA0A2013F0B6FA6A
:106E80000021242013F09AFB642010F061F8012106
:106E9000242013F093FB022013F0AEFA0C2013F021
:106EA000A5FA012010F054F8206813F0D5FA08EE86
:106EB000100A002013F0A0FA0A2013F097FA00211C
:106EC000242013F07BFBB8EE488ADFED7B7A9FED40
:106ED0007B7A68EE277AB4EEC78AF1EE10FAC5ED38
:106EE000007A7BD49FED767AB4EEC78AF1EE10FA81
:106EF00065D49FED747ADFED746A77EEC77AB2EEEF
:106F0000047AA7EEA67AFCEEC77ACDED017A9DF859
:106F100004306E4C6E496F48237013F0F3FB286801
:106F200018F022FB41EC100B02216A4813F018FC08
:106F30006949684813F0E6FB217866480A2213F095
:106F40001BFD6649634813F03BFC2378092B47D9A6
:106F5000A3F10A021D2A7AD9283B614C1D2B6388B4
:106F600046D88BB100252646A9B24FF6FF723046AF
:106F700001F07CF8304600F0E3FD19200FF0E8FF47
:106F800063880135AB42EFDC4FF4FA700FF0E0FF9D
:106F9000638883B1524E0025A9B20022304601F029
:106FA00065F8304600F0CCFD32200FF0D1FF638849
:106FB0000135AB42F0DC03B0BDEC028BF0BDDFED80
:106FC000496A9FED497A77EEE67A67EE877AFCEEBA
:106FD000E77ACDED017A9DF804309AE7002398E72F
:106FE000424803B0BDEC028BBDE8F04000F0A4BC09
:106FF0008BB100252646A9B24FF47F42304601F0FE
:1070000035F8304600F09CFD19200FF0A1FF638891
:107010000135AB42EFDC4FF4FA700FF099FF638853
:10702000002BC8D02E4E0025A9B20022304601F018
:107030001DF8304600F084FD32200FF089FF638890
:107040000135AB42F0DC03B0BDEC028BF0BD244C4B
:1070500063888BB1264F00252646A9B23A463046B2
:1070600001F004F8304600F06BFD19200FF070FFBE
:1070700063880135AB42F0DC4FF4FA700FF068FF23
:107080006388002B97D0164E0025A9B20022304607
:1070900000F0ECFF304600F053FD32200FF058FFB7
:1070A00063880135AB42F0DC03B0BDEC028BF0BD70
:1070B00010800020FC8600200030C03FA95D0945FB
:1070C00089DA1545000061459A99193E008700202C
:1070D000C42F040028870020CC2F0400D42F0400E4
:1070E0006485002000404E458988083DCC850020FD
:1070F00000FFFF0038B524492448254D254C13F0E6
:107100005FFB04211D2013F0D5F9234800F032FC69
:10711000224800F02FFC224800F02CFC002109201E
:1071200013F04CFA28468D2100F0AAFB02212846D4
:1071300000F0A6FB44F001044FF4F060A0470121E9
:10714000092013F03BFA4FF4F060A047284600F006
:107150001BFB00212D2013F0ADF900210A2013F0B4
:10716000A9F90021092013F0A5F900210D2013F041
:1071700025FA64200FF0ECFE0A4B01221A70BDE8DC
:107180003840FFF79FB800BFD82F040028870020A1
:107190000487002080310400A48500207086002030
:1071A000CC8500209883002038B51D2013F054F9B9
:1071B000041E03D1114D2B78A3B938BDFDDD0F4D51
:1071C0002B78002BF9D10E490E4813F09BFA21467B
:1071D0000C480A2213F0AAFB01232B70BDE83840AB
:1071E000FFF788BF0649074813F08CFA05480A22C2
:1071F000214613F09BFB2C7038BD00BF0C80002093
:1072000030310400288700202DE9F0415B485C4CB8
:107210005C4DDFF8C8815C4F5C4E82B04FF4E131C9
:1072200001F09AF95A4B009320465A4B5A4A0021D2
:1072300001F02CFC20464FF400731022002101F0D5
:1072400031FC564B00932046554B564A002101F025
:1072500039FC20460122002101F02EFC524A204632
:10726000002101F03BFC204601F03EFC01210D20F5
:1072700013F020F900210D2013F0A0F964200FF085
:1072800067FE01210D2013F099F964200FF060FED4
:10729000FFF7BCFA284600F041FC284600F050FCFD
:1072A00000212F2013F006F940464FF0FF32012154
:1072B00000F096FB3D4BC8F8243038463C493D4D24
:1072C0003D4CDFF81C814FF0FF3200F089FB3B4B57
:1072D0007B6230464FF0FF32C82100F081FB384B13
:1072E000736228464FF0FF324FF4FA7100F078FBDA
:1072F000344B6B6220464FF0FF32C82100F070FB28
:10730000314B324F636240464FF0FF324EF6602100
:1073100000F066FB2E4BC8F824304FF0FF324FF4DC
:10732000FA71384600F05CFB2A4B7B6200F060FB90
:1073300000F07AFB304600F01DFB2846264D00F099
:1073400019FB204600F016FB4FF0FF33272228469A
:10735000222109F07FFD284609F0ACFD00211F2005
:1073600013F0A8F80121242013F0A4F8FFF76CFD16
:1073700002B0BDE8F041FFF7EFBB00BF2887002057
:10738000988600206485002048860020A48500207F
:107390006031040044310400543104008163020070
:1073A000696302004D630200C96202008563020046
:1073B000905F010070860020CC8500209566020059
:1073C000F9650200596A02007565020020860020F6
:1073D00031640200A9710200D09C00207C8500204D
:1073E000F88500202DE9F0411D2082B013F034F81B
:1073F000041E59D14A4D2B78002B40F08580494C12
:107400002378002B66D1484C484DDFF85881484E10
:1074100000F0EEFA00F0FEFA22682B689A4204D1DE
:10742000D8F8002033689A426CD042494248434F12
:1074300013F068F90A2229683F4813F077FA4049A7
:107440003D4813F05FF931683B480A2213F06EFAA9
:107450002A683368226001213970C8F80030FFF7CC
:10746000E9FB384809F03AFD374A044628B93B7829
:1074700010602BB902B0BDE8F081012310603B70B1
:10748000324995F90020097896F9003030480025F6
:1074900064B2CDE9004508F005FD2E4800F06EFA13
:1074A0003D7002B0BDE8F081A9DD1D4D2B78002BA9
:1074B000A5D12949204813F025F921460A221E4862
:1074C000184C13F033FA01232B70FFF713FE2378C7
:1074D000002B98D064200FF03BFD01210D2013F00C
:1074E0006DF864200FF034FDFFF790F91B49124846
:1074F00013F066F900232370FFF7A6FC184B012256
:107500001A7080E70D4FAAE713490B4813F0FAF8F9
:1075100009480A22214613F009FA2C706FE700BFD0
:107520000C80002098830020A4830020A0830020EA
:10753000A88300207431040028870020598500208A
:1075400078310400D09C00205C8500205885002004
:10755000F8830020488600203031040064310400A4
:1075600061850020AC8300202DE9F0413E4F3F4C67
:107570003F4D404EDFF84081384600F0B5F92246D5
:107580002946384618F0D8F9304600F0ADF92246C1
:107590002946304618F0D0F9374E384F404600F0B3
:1075A000A3F922462946404618F0C6F9304600F0B5
:1075B0009BF922462946304618F0BEF9304EDFF8D6
:1075C000FC80384600F090F922462946384618F0EB
:1075D000B3F9304600F088F922462946304618F0C3
:1075E000ABF9284F284E404600F07EF92246294646
:1075F000404618F0A1F9522338462022022100F01B
:1076000051FA22462149224D384618F095F9304664
:1076100008F090FB22461F49304618F08DF92846A5
:1076200008F02EFC22461C49284618F085F9262130
:107630001A4809F08FFB0B21194809F08BFB162122
:10764000184809F087FB2121174809F083FB08211E
:10765000164809F07FFB1648182109F07BFBBDE8AE
:10766000F041144801F000BA7C8500200060002041
:107670001D7902004886002070860020CC850020FD
:10768000F885002064850020B0830020017B020083
:10769000F8830020E9760200C1760200E884002029
:1076A000048500203C85002020850020B084002037
:1076B000CC84002098860020A4850020208600200D
:1076C00010B5074B044640F8543B05F00DFE20462C
:1076D000044B40F8083B07F0ADFD204610BD00BF4D
:1076E000E83404006033040010B5044B044640F84D
:1076F000083B07F09FFD204610BD00BF603304002B
:10770000437C03B1704730B54FF4807285B002827C
:107710000321FF22019304468DF803208DF80620F3
:107720008DF80510827B417B8DF800204FF080455D
:107730001A4602958DF80110057BC37369460393C1
:107740008DF8025011F0C8FFA37B1F2B86BF03F0FA
:107750001F030C4A4FF0A04203F5E07340F20131E1
:1077600042F82310637B1F2B86BF03F01F03054ADB
:107770004FF0A04203F5E07340F2033142F82310CA
:1077800005B030BD0003005010B5044612F0E6F815
:107790000023637410BD00BFC37B0268013918BFAA
:1077A0000121022B017406D0032B0ED0012B07D030
:1077B000C2F85415704741F00401C2F854157047DF
:1077C00041F00201C2F85415704741F00601C2F8B9
:1077D00054157047037C0268C173003B18BF012336
:1077E000022906D003290ED0012907D0C2F854354A
:1077F000704743F00403C2F85435704743F0020366
:10780000C2F85435704743F00603C2F85435704748
:10781000B1F5007F036804D34FF00072C3F824254C
:107820007047FF2904D94FF08062C3F824257047C0
:107830007F2904D83F2907D94FF08052EEE74FF057
:107840000062C3F8242570471F2904D80F2905D9E1
:107850004FF08042E2E74FF00052DFE7072902D8FD
:10786000064A934202D04FF00042D7E703298CBF6B
:107870004FF020624FF0A052D0E700BF00F002406E
:1078800030B587B001230D460DF10704002202A98F
:10789000CDE903348DF807500294059312F0C8F82F
:1078A0009DF8070007B030BD30B40A4A0A4BD2F841
:1078B000AC40D2F8B400916A1C7300220124074D39
:1078C0001C7198735973DA731A821D609A6030BC08
:1078D000704700BFBC3804000487002000F002405D
:1078E000436A03B11847704710B50B4B03604FF064
:1078F000FF3200230446C0E90433C0E9013382614A
:10790000838180F82030436200F072F8214600F055
:1079100095F8204610BD00BF9031040010B5054B0E
:107920000360044600F064F8214600F099F8204610
:1079300010BD00BF9031040038B5437B04467BB1D5
:107940000FF0FAFAA568451B0FF0F6FA6369626852
:10795000A0602A441D44012362606561A38138BD93
:107960000FF0EAFAE369C4E905030123C4E9010061
:10797000A38138BD00238381704700BF10B5044642
:107980000FF0DAFAC4E90100606110BD037B03B9AE
:10799000704710B504460FF0CFFA94F82030A0607D
:1079A000ABB1D4E90432801A984210D323680B4A51
:1079B0001B6893420ED1636A03B19847A369002BF9
:1079C000C4BF03F1FF33A36113B1A368636110BDAA
:1079D000A38110BD20469847F0E700BFE178020080
:1079E0000123C0E90622016180F82030704700BF02
:1079F000064B1A68D20706D4054A00200021C2E9C6
:107A0000000101221A600248704700BF1887002059
:107A10002087002010B504682CB16068FFF7B6FF1E
:107A20002468002CF9D110BD10B504682CB1606831
:107A3000FFF782FF2468002CF9D110BD38B5044649
:107A400008200D4613F04CF8636845600022026080
:107A500013B11860606038BDC4E9000038BD00BFD4
:107A600070B50668DEB13346002503E01A681D468E
:107A70009AB113465C688C42F8D10DB11A682A603D
:107A800042689A4208BF45609E4204BF1A6802607D
:107A9000184613F029F8012070BD104670BD30461D
:107AA00070BD00BF70B50446C3F38100C3F38116F7
:107AB000FF2B0D466074C3F3011103F00300A074A3
:107AC0008CBF002301238E420CBF0320042015FB32
:107AD00000F080B223700023E6742174A0806370EC
:107AE00023726361012116460FF07EFAE06018B13F
:107AF0006580E680204670BDC4F80200F9E700BF4B
:107B000010B50446C0680FF059FAB4F90600002811
:107B100002DB002112F0CEFC204610BD10B5044659
:107B2000B0F90600002807DB012112F0C3FCB4F90C
:107B30000600002112F042FD0123637010BD00BF5A
:107B4000C368002B00F07E822DE9F04F854C864DF6
:107B5000864E91B08346E368DB010FD53368D807C2
:107B60000CD57368DBF814209B099A42A3EB020141
:107B700011D9CBF81430E368DB01EFD410F020FC0E
:107B8000A0FB0501DBF81420830A43EA81539A42E3
:107B9000A3EB0201EDD8B1F5967FDCD3744BBBF8B3
:107BA00004400FCB10AD05E90F00DDF830A0DAF886
:107BB000003523B9DAF86035002BC0F2A580DDF876
:107BC00034A0DAF8003523B9DAF86035002BC0F2BA
:107BD000F381DDF838A0DAF8003523B9DAF860353A
:107BE000002BC0F2F981DDF83CA0DAF8003523B9AA
:107BF000DAF86035002BC0F2FF8111F0CDFA5D4B51
:107C0000BBF9062053F822301F2B76D9203B4FF0CA
:107C10000109DFF8688109FA03F95249534CCB682E
:107C20009BF80000544A43F08073CB60236800281F
:107C300043F00103236014BF5823C323039342F08E
:107C4000010315BF12271A272926462614BF4725E8
:107C50009C250493CDF804B0019BB3F804B0D3F88D
:107C60000CE063680293BBF1000F00F0D5810BF1CB
:107C7000FF3A1FFA8AFA0AF1010AF24400221EF8BA
:107C800001CB0820802163689B1AAB42FBD362685A
:107C9000D8F808351CEA010F43EA0903C8F808358B
:107CA00022D063689B1AB342FBD3D8F80C35013855
:107CB00043EA09034FEA5101C8F80C35E3D1D64530
:107CC000DDD1039B03FB0BF1C90063689B1AAB4238
:107CD000FBD36368029A9B1A8B42C0F0A081049B7D
:107CE0004FF496409847B7E763689B1ABB42DCD2D3
:107CF00063689B1ABB42F7D3D7E74FF0010909FA33
:107D000003F94FF0A04888E7DAF86435002BBFF696
:107D100056AFDAF86835002BBFF651AFDAF86C359C
:107D2000002BBFF64CAF23010433184609930FF024
:107D30002BF9814600283FF460AF002C00F08781CA
:107D4000DBF80C309BF800200192013C13FA84F21E
:107D5000013BCDF828A0069200249A46CDF82CB01D
:107D600056E000BFF0ED00E040420F00001000E0E0
:107D700094310400BC380400B0310400000300500A
:107D800048F2080E48F2130810F0800F0CBF764638
:107D9000464610F0400F0CBF7546454610F0200FC8
:107DA0000CBF7746474610F0100F0CBFF446C44690
:107DB00010F0080F29F8146029F8115008BF764612
:107DC00029F8127018BF4646039F29F813C010F017
:107DD000040F0CBF7146414610F0020F29F81760DE
:107DE000059B029E049D29F816100CBF7246424660
:107DF00010F0010F744618BF444629F8152029F8E1
:107E00001340069B9A451FFA8BF01FFA8BF478D02B
:107E1000A51DADB2E01D0495A51D80B2ADB2271D14
:107E2000661DBFB2B6B205900795E01D019D039790
:107E300080B2611CA21CE31C029604F1010804F14B
:107E4000020E04F1030C271D661D089089B21AF872
:107E5000010F92B29BB204F1080B1FFA88F81FFAC7
:107E60008EFE1FFA8CFCBFB2B6B2002D88D010F087
:107E7000800F48F20D0548F2060B0CBF5A462A4601
:107E800010F0400F0CBF5B462B4610F0200F0CBFCC
:107E90005946294610F0100F29F8142008BF5D46F6
:107EA00029F8183010F0080F48F2060804F1080B02
:107EB00048F20D0414BF2246424610F0040F14BFCE
:107EC0002346434629F81E1010F0020F29F81C50D3
:107ED00029F8172029F81630079B14BF2146414680
:107EE00029F8131010F0010F089B14BF20464046DC
:107EF00029F81300069B9A451FFA8BF01FFA8BF4A2
:107F000086D1431CDDE90AAB9BB25B0009EB400064
:107F10004FF40041018029F80310019B0022CAF8A8
:107F20000425CAF80C25002B40F08D802823CAF8C0
:107F30000835099BBBF90610484A58080023CAF8BF
:107F40001435CAF81035CAF82095CAF82405CAF8BD
:107F50002835CAF82C3552F82120CAF860250122AC
:107F6000CAF80025CAF81031CAF80820DAF810312A
:107F70002BB912F0D1FDDAF81031002BF9D0002323
:107F80004FF0FF32CAF810314846CAF80035CAF837
:107F900060250FF013F8324BDB68D90147D410F09D
:107FA0000FFA304BA0FB0301830A43EA8153CBF85D
:107FB000143011B0BDE8F08FDAF86435002BBFF64D
:107FC00008AEDAF86835002BBFF603AEDAF86C3588
:107FD000002BBFF6FEADA6E6DAF86435002BBFF63F
:107FE00002AEDAF86835002BBFF6FDADDAF86C3575
:107FF000002BBFF6F8AD96E6DAF86435002BBFF635
:10800000FCADDAF86835002BBFF6F7ADDAF86C3561
:10801000002BBFF6F2AD86E659465A4655E6DDF826
:1080200004B011F0C3F80E4BDB68D901B7D50E4B85
:108030001A68D207B3D55B689B09CBF8143011B02E
:10804000BDE8F08F70471423CAF8083571E79BF834
:1080500000300193484602235AE700BFBC380400B1
:10806000F0ED00E040420F00001000E043888B423A
:1080700021D9F0B5047A170C150AFFB2EDB2D6B2C9
:1080800044B104FB07F704FB05F504FB06F63F0AC1
:108090002D0A360A90F813E090F810C0C368E64540
:1080A0000AD0120E03EB810184B9D2B201F80E207E
:1080B00090F810C003E0704701EB4101194401F84A
:1080C0000C70437CCD54837CCE54F0BD04FB02F293
:1080D000C2F30722EAE700BFF8B5037813F0010402
:1080E0001AD103785A070546C3F3800701D5204605
:1080F000F8BD0E4630464FF0FF310FF04BFC2B78A9
:1081000013F001040BD12B785B0709D42B7843F0D3
:1081100004032B70012403E000242046F8BD3C46F4
:10812000002330461A4619460FF044F82046F8BDA1
:1081300070B504460D4608464FF0FF310FF02AFC9B
:108140002378C3F380065B0708D5237813F0010278
:1081500005BF237862F3820300262370002328469C
:108160001A4619460FF026F8304670BDC37882884B
:1081700003F003000228C2F30A0205D0032819D035
:10818000012807D00020704702291CD0402A09D8B6
:1081900001207047022940F2FF3308BF4FF480638B
:1081A0009342F6D20A4B186810F00100F1D000BEDD
:1081B0000020704702290CBF4FF480634023934294
:1081C000F0D30120E5E7B2F5007FE1D0EAE700BF98
:1081D000F0ED00E00A44914216D230B44C78052C00
:1081E00005D00C7821448A42F8D830BC70478C788E
:1081F00004F07F0500EB4505E4092B550C7821447C
:108200008A42EBD830BC7047704700BF0146014836
:1082100000F0EEBA4887002038B500F097F940B179
:10822000002405462046013400F072FEE0B285428B
:10823000F9D838BD70B592B01D460C46164601A857
:108240004222002117F048FC412D5CD9631C022218
:10825000DBB28DF806408DF80E408DF8264040F6D2
:10826000083540F202248DF81E308DF827308DF845
:108270003130ADF804508DF807208DF812208DF8BC
:1082800033208DF83B20ADF80840204A069240F29A
:10829000012505232424ADF810508DF815308DF8F4
:1082A000164004231A4C8DF81F30012540F2246239
:1082B0008DF81C508DF830300894ADF82420154D01
:1082C0000A9508234FF411640A228DF82C30ADF87A
:1082D0002E4040238DF834200F4C8DF83C3001A9FE
:1082E000304640F2075540F209464222ADF80C6094
:1082F000ADF838508DF84330CDF83F4017F0C4FB4F
:10830000422012B070BD002012B070BD20010524C3
:10831000240202050705800307058002007EFF286E
:108320000AD010B500F09CFD044608B1204610BDEF
:1083300012F0F2FB204610BD00207047007EFF289F
:108340000ED000B583B00DF1070100F0D7FD20B1CC
:108350009DF8070003B05DF804FB4FF0FF30F9E72C
:108360004FF0FF30704700BF007EFF280FD000B5F0
:1083700083B001220DF1070100F07EFD20B19DF8D0
:10838000070003B05DF804FB4FF0FF30F9E74FF052
:10839000FF307047007EFF2801D000F0B9BD704764
:1083A000007EFF2801D000F01BBE0020704700BFF8
:1083B000F8B50646007EFF281CD017465AB10D4678
:1083C000144600F029FD2946224680B1307E00F097
:1083D000E3FD241A01D13846F8BD054412F09CFB98
:1083E000307E00F019FD294622460028EED13F1BC1
:1083F0003846F1E70020F8BD70B50368184A5B689D
:1084000082B093428DF8071021D10546007EFF28E7
:1084100023D000F001FD0DF107060124314622466C
:1084200088B1287E00F0B8FD241A02D1012002B0E4
:1084300070BD064412F070FB287E00F0EDFC314662
:1084400022460028EDD1C4F1010002B070BD012226
:108450000DF10701984702B070BD002002B070BD59
:10846000B183020070B592B01D460C46164601A8B5
:108470004222002117F030FB412D5CD9631C0222FF
:10848000DBB28DF806408DF80E408DF8264040F6A0
:10849000083540F202248DF81E308DF827308DF813
:1084A0003130ADF804508DF807208DF812208DF88A
:1084B00033208DF83B20ADF80840204A069240F268
:1084C000012505232424ADF810508DF815308DF8C2
:1084D000164004231A4C8DF81F30012540F2246207
:1084E0008DF81C508DF830300894ADF82420154DCF
:1084F0000A9508234FF411640A228DF82C30ADF848
:108500002E4040238DF834200F4C8DF83C3001A9CB
:10851000304640F2075540F209464222ADF80C6061
:10852000ADF838508DF84330CDF83F4017F0ACFA35
:10853000422012B070BD002012B070BD2001052491
:10854000240202050705800307058002014B187805
:10855000704700BF44870020037EFF2B02D1074BEA
:108560001A7802B17047064902764161012200F192
:10857000100104481A7000F0DBB800BF44870020E7
:10858000B831040048870020007EFF280ED000B5D7
:1085900083B000F041FC10B103B05DF804FB019022
:1085A00012F0BAFA019803B05DF804FB002070479E
:1085B00001B900B1704700B583B0694600F042FCD4
:1085C000009BB3F5966F02D003B05DF804FB00F09A
:1085D000D1FBF9E730B4084B084AFF2002F1080547
:1085E0004FF47A740021303218761D609C601A6155
:1085F00030BC59605961704728870020C831040099
:108600000378002B00F09280F0B505460020044668
:108610002E4603E001342B5D2E19C3B103F1400255
:10862000D2B2012AF6D9F42BF4D81A0610D40122BA
:10863000A3F55846B6F5006FECD31444202806D0B5
:1086400021F810302B5D01302E19002BE6D1F0BD42
:1086500003F0E002C02A52D003F0F002E02A61D019
:1086600003F0F802F02AD5D103F00703042772784B
:1086700002F0C00CBCF1800FCCD196F802C00CF017
:10868000C00E02F03F02BEF1800F42EA8313C1D157
:108690000CF03F0C032F4CEA83132AD0F27802F03F
:1086A000C006802EB6D102F03F0242EA8313A3F542
:1086B0008032B2F5801F38BF0427ABD2A3F55842F1
:1086C000B2F5006FA6D3B3F5803F3C44B6D31E2865
:1086D000BDDCA3F5803342009E0A0A44C3F30903BC
:1086E000A6F52056A3F5105321F8106053800230F0
:1086F00091E7A3F50062B2F5784FDFD38AE772788D
:1087000002F0C006802E03F01F0383D102F03F0267
:1087100042EA8313A3F18002B2F5F06FBFF47AAF9F
:10872000022285E703F00F030327A0E718467047EE
:10873000F8B50546B0F818016C69B5F81A310A6841
:108740000E4604441B1A176895F81C119BB222466A
:108750003046B84750B3221894423CD2766806E0BF
:10876000052B25D023780BB31C44A24233D9637860
:10877000042BF5D1E378002BF4D195F81C110131CD
:1087800085F81C11002EEDD095F850110B29E9D871
:1087900001F1480745F82760217295F85011013121
:1087A00085F850111E462378002BDDD10020F8BD3E
:1087B00094F90230002B08DB95F81E31591C85F81E
:1087C0001E11A1780B43A370CCE795F81D31591CFD
:1087D00085F81D11F5E7B5F818216B69104480B2D2
:1087E000A5F81801588095F81C211A710120F8BDD0
:1087F0002DE9F043264DDFF8A890AC4604468846A4
:10880000BCE80F0089B003AF0FC703AE0FCE05F170
:10881000140E25460FC59EE80700DCF800303B80AB
:108820006B4636682E8003C36B4603CB012504F1EB
:1088300018034FF480766361A061E16184F8202021
:1088400004F59870C4F818912022A4F81C61002146
:1088500084F81E5117F040F90E4E0F48A5710422FE
:1088600040F2EF2340F209470021C4E94A0184F8AD
:108870005021A3804FF4E131C4E948760748FFF75F
:108880006BFE404600F064FA284609B0BDE8F0836C
:108890002C320400FC3104000C3204002887002034
:1088A000090000012DE9F047D0F82C0188B00E46F0
:1088B00030B10231FFF7A4FEC0B208B0BDE8F087C6
:1088C000684600F059FA8646F8B1431E06F10409DD
:1088D000DBB2114DE84609EB830904AC95E80F00C3
:1088E00018F8017B84E80F0007F00F0C0DF1200A47
:1088F000D4440AEB17171CF810CC17F8103CA6F854
:1089000004C073800436B145E8D14FEA4E00C0B2CE
:1089100008B0BDE8F08700BF183204000048704777
:1089200048870020014B5869704700BF48870020E6
:1089300010B5B0B103281CD0154C94F850318342C7
:1089400023D9483004F5AA7154F82000FFF758FEE7
:10895000C3B201335B0043F440730E48A4F85231B4
:1089600010BD0B4CD4F82031A4F854314FF44173AE
:10897000F3E70849A1F5A9742046FFF793FF431CCC
:108980005B0043F440739BB2E7E7002010BD00BFDB
:10899000488700209A880020024B53F8200000B13D
:1089A00000697047DC88002030B4094CBDF80850DD
:1089B00054F8204044B1646934B10846A4461146D5
:1089C0001A462B4630BC6047002030BC704700BFC1
:1089D000DC88002030B4084CBDF8085054F8204022
:1089E00044B1A46934B10846A44611461A462B4640
:1089F00030BC604730BC7047DC88002000207047E6
:108A000070B487B00020162B029000900390CDF830
:108A1000130022D940F209431546114E8DF8021079
:108A20000720052144F20202ADF8003040230196F0
:108A30008DF814306C468DF809008DF80A10ADF8E9
:108A40000C200FCCA6882860A479064828616960AC
:108A5000AA60EB60AE82AC75172007B070BC70479F
:108A6000020806500705800210B5074B036000217D
:108A70000123044680F8603041605822083017F026
:108A80002BF8204610BD00BF5432040010B42C2433
:108A900004FB010101988862C1E908235DF8044BD9
:108AA000704700BF10B42C2404FB01015DF8044B97
:108AB000CA620B86704700BF2C2303FB010181F8BB
:108AC0003220704710B42C2404FB01010198086186
:108AD000C1E902235DF8044B704700BF2C2303FB60
:108AE00001014A61704700BF10B5014604460348C2
:108AF000FFF71EFE08B1024B1C6010BD4887002026
:108B0000E4880020024B186808B190F860007047B4
:108B1000E48800202DE9F843234C2568002D40D03F
:108B20001E462C2303FB00530446D3F820908846AE
:108B30001746B9F1000F30D0484617F0ECFE082870
:108B4000024628BF08222C2000FB0454D4E9095413
:108B5000DFF85CC0154B002D08BF6546494640460E
:108B6000002C08BF1C4616F08FFF284617F0D3FED6
:108B700010280246294628BF1022384616F084FFE6
:108B8000204617F0C8FE042802462146304628BF7A
:108B90000422BDE8F84316F077BFDFF818900822EA
:108BA000D1E7BDE8F88300BFE4880020603104000D
:108BB000443104005431040070B5104E3368CBB119
:108BC0002C2404FB0034054662691AB190473368CF
:108BD00084F832002C2202FB053393F832400CB1AA
:108BE000204670BD284623463A22022101F012F8A1
:108BF000204670BD1C46204670BD00BFE4880020A2
:108C0000074B1B6853B110B42C2404FB0030C46A1A
:108C1000038E0C605DF8044B13807047704700BFF3
:108C2000E488002008B520220023052100F0F2FF8F
:108C30004FF0FF3008BD00BF30B4084C256855B177
:108C40000446084611461A462C2303FB0454E369E4
:108C50000BB130BC1847012030BC7047E4880020BD
:108C600030B4094C029A25684DB1044608461946AD
:108C70002C2303FB0454A3680BB130BC18474FF0FE
:108C8000FF3030BC704700BFE488002030B4094C8E
:108C9000029A25684DB10446084619462C2303FB69
:108CA0000454E3680BB130BC18474FF0FF3030BCC0
:108CB000704700BFE4880020044B1B682BB12C22B6
:108CC00002FB0030036903B118477047E4880020B5
:108CD000054B1B682BB12C2202FB0030836903B1CA
:108CE00018470120704700BFE488002003F070BEE1
:108CF00000B5134B402283B083F82723002001F0F6
:108D0000D9FF4FF080430024D3F838548DF8004049
:108D1000684610F0F3FB0B4B019301A810F03EFCEA
:108D200010F048FCEB0707D400214FF0FF3002F0B1
:108D30004DF8FFF771FAF7E7204603F049FEF3E735
:108D400000E100E0ED8C0200002003F0B3BA00BFA8
:108D500000B5002383B00322CDE900230349044872
:108D6000C8220FF03DF903B05DF804FB583204004F
:108D7000F18C020011F090BA4FF08052536E1BBA82
:108D80000360136E1BBA43600820704700487047A9
:108D90006032040070B51E4D2B6883B1012913D1D8
:108DA0001478C4F34114012C0BD0022C07D1547851
:108DB000012C0BD0022C07D19388072B20D0002048
:108DC00070BD517822290BD0012070BDDC69002CC8
:108DD000F5D0237811462246BDE8704002F004BE6B
:108DE0005188003918BF01211976114602F0E2FDC1
:108DF0002A68136A002BE7D0107E9847204670BD82
:108E0000044C114623892246BDE8704002F0ECBDB7
:108E1000E88800201480002010B5044601F032FFDD
:108E200008B9002010BD01F035FF0028F9D1044831
:108E30004FF4567303FB0400007900F0010010BDED
:108E4000EC880020054B4FF4567202FB0033986803
:108E500008609A899B7B8B718A807047EC88002020
:108E600008B5044B4FF4567202FB0030103001F08D
:108E7000FDFC08BDEC8800202DE9F0414FF456754B
:108E800005FB00F51C4F4FF6FF734FF6FE7005F122
:108E90001004824288BF1A463C4492B2204601F038
:108EA00011FD0646204601F0FBFC3F2802D8304663
:108EB000BDE8F08107EB0508002098F8031002F0E8
:108EC000EBFC0028F3D0204601F0EAFC3F280BD948
:108ED00005F5367298F803103A444023002002F05A
:108EE000FBFC3046BDE8F08198F80310002002F04A
:108EF000E3FC3046BDE8F081EC880020034B4FF4E2
:108F0000567202FB0030103001F04ABDEC880020A0
:108F10002DE9F041044601F0B5FE10B90020BDE88E
:108F2000F08101F0B7FE06460028F7D14FF45671E4
:108F3000DFF8608001FB04F404F124054544284671
:108F400001F094FC0028E9D008EB04073046B9781A
:108F500002F0A2FC0028E1D004F5467444442846FF
:108F60002146402201F0AEFC054660B1B9782246A8
:108F700030462B4602F0B0FC40B9054B1B68DB07BE
:108F8000CCD500BECBE7B97802F096FC2846C6E700
:108F9000F0ED00E0EC88002038B5104B4FF456742B
:108FA00004FB003405464FF6FF734FF6FE70824215
:108FB00088BF1A46243492B2204601F02BFD0346A6
:108FC00020461C4601F052FC3F2801D8204638BDFF
:108FD0002846FFF79DFF204638BD00BFEC880020E3
:108FE00008B5044B4FF4567202FB0030243001F0F8
:108FF00057FC08BDEC880020F0B51B4C83B0002165
:109000004FF4567220460D46012616F065FDFF23EB
:109010004FF4E13204F138016371A260334608274E
:10902000009504F110004FF48072A773A58101F040
:10903000E5FB33464FF4807204F59C7104F1240083
:10904000009601F0DBFB04F50E7130460EF062FA7B
:1090500004F5227103463046C4E907530EF05AFA6C
:10906000C4E90C0503B0F0BDEC88002010B5094B35
:10907000002203F1240403F110001A601A7101F0B8
:109080006BFD204601F068FD20460121BDE810403F
:1090900001F082BDEC8800202DE9F0414B79022BD4
:1090A00082B002D18B79022B04D00025284602B071
:1090B000BDE8F081314FBB782BB1314B1B68DB072A
:1090C000F3D500BEF1E78B783B700C780C44064674
:1090D000617824294FF009050BD1082A02D80FE046
:1090E000AA420DD323781C442B44617824299DB2D5
:1090F000F6D005291BD0042902D163790A2B28D088
:10910000204801F0CDFB3F28D0D9F978002002F0AB
:10911000C3FB0028CAD01B4801F0C2FB3F28F978E6
:1091200013D9194A4023002002F0D6FBBEE721469E
:10913000304602F08DFB0028BFD0A3787B702378E7
:109140001C442B4461789DB2D5E7002002F0B4FBAB
:10915000ACE70E4A94F8008001920223013200929B
:10916000304604EB08011A4602F0FAFA0028A4D0AF
:1091700005F10E0318FA83F39DB2C1E7EC880020D5
:10918000F0ED00E0FC880020C48B0020EE88002079
:1091900038B5137803F06003202B0CD1274C93884B
:1091A00025789D4207D15378203B032B03D8DFE875
:1091B00003F00A172004002038BD012930D003290C
:1091C00033D0012038BD01290CD00329F9D11C4B23
:1091D000002BF6D01B490020AFF30080012038BDE2
:1091E0000129EED111460723164A02F0FDFB0120AA
:1091F00038BD012914D00329E3D15588257105F024
:109200000104114884F0010101F0C6FC0F4B002B52
:10921000D7D0C5F3400221460020FFF7C9F9D0E7B7
:10922000114602F0C7FB012038BD094B002BC8D006
:1092300051880020AFF30080012038BDEC88002069
:1092400000000000F488002010890020B185020091
:10925000000000002DE9F047574DEA788A420C469D
:1092600007461E465CD19AB205F5367105F110002D
:1092700001F0D0FB514BD3B16B79FF2B17D0B6B1B6
:1092800005F2D72808EB060AA8F2C72902E0D04564
:109290000DD06B7918F8012F9A42F8D1484601F0A9
:1092A000F5FA0028F3D16979AFF30080EFE7444B7A
:1092B00023B1444801F0EAFA002870D0414801F097
:1092C000EFFA3F2805D9E978002002F0E5FA0028F6
:1092D00058D1AB789C4203D001242046BDE8F087EA
:1092E000394B13B10020AFF3008001F0CBFC20BB61
:1092F000364801F0BBFA0028EED1002EECD016F073
:109300003F06E9D1A978384602F0C6FA044600289B
:10931000E2D0A97838463346324602F0DDFADCE77F
:10932000AB788B42DCD02A4B1C6814F00104D4D0FB
:1093300000BE00242046BDE8F08701F0ABFC0446E7
:109340000028D5D1214801F091FA0028D0D0A97881
:10935000204602F0A1FA0028CAD01E494022A1F5F9
:109360003D7001F0AFFA034608B31A4AA9782046C7
:1093700002F0B2FA0028AFD1154B1B68DB07B7D556
:1093800000BEB5E70F4801F08BFA3F280AD9402309
:10939000114AE978002002F09FFAAB789AE7AFF320
:1093A00000808BE7E978002002F086FA91E7A9783F
:1093B00002F082FA9CE700BFEC8800200000000069
:1093C00000000000FC880020000000001089002040
:1093D000F0ED00E0048C0020C48B002002484FF424
:1093E0008C72002116F078BB448C002002484FF4A8
:1093F0008C72002116F070BB448C00202DE9F047E0
:109400004B79032B82B014D10B79C3EBC305123512
:10941000ADB295420C4607D8314F7A7806466AB10C
:1094200097F88D20002A51D02E4B1B68DA0700D503
:1094300000BE0025284602B0BDE8F087904692465F
:109440004FF0010E4FF0020C2278A1184878212825
:10945000EAD14FF08C0909FB0A7907EB0E00C9F835
:10946000881014F802E0019007EB0C02009271449E
:109470001A463046032302F073F90028D4D0A379AA
:10948000012B04BFE37989F803308C2303FB0AFA2C
:1094900007EB0A0301221A71A27807F80A20D3F811
:1094A00088209978B2F80720DA800029C2D008F124
:1094B00048023A443046402302F00EFA0028B9D15F
:1094C000084B1B68DB07B5D500BEB3E74FF08D0E28
:1094D0004FF08E0C4FF08C084FF0010AB4E700BF3C
:1094E000448C0020F0ED00E0137803F01F0CBCF179
:1094F000010F14D12DE9F0430C4686499788154693
:109500000A78FFB2BA4283B006460AD091F88C209E
:10951000BA4200F0CF80002003B0BDE8F083002005
:1095200070470027BC46042208204FF0480E4FF039
:10953000050813F0600306D1012C00F0A180012082
:1095400003B0BDE8F083202BE5D16B78013B0A2BFB
:10955000E1D80FF2080959F823F000BF3396020052
:109560002996020015960200179502001795020031
:10957000179502001795020017950200D595020075
:10958000AB95020089950200012C1DD0032CD6D189
:109590006B88614A8C2000FB0717D9B23971002A09
:1095A000CDD06046AFF30080C9E7012CC7D16B88EE
:1095B0005A488C2202FB0712190A517120B16046E9
:1095C000AFF300800028A6D02946304602F0F2F919
:1095D0000120A1E7012C00F08580032CAFD1688821
:1095E000ED88402D01EB0E032C4628BF402410F0DF
:1095F000FF014FEA102207D0012D05D918788842C3
:1096000002D1013CA4B2013360460094FFF7E2F9B5
:10961000012081E7012C92D10A4429463046234695
:1096200002F0E2F9204677E7012C88D101EB08022D
:10963000F3E7012C83D1B5F806E06B880F1870466C
:10964000402828BF402013F0FF014FEA13223B4679
:109650005BD0BEF1010F5AD9013803F8011B80B26B
:1096600000906046FFF7A0F923189BB2002B45D16C
:109670002B4A1268D2077FF54EAF00BE18464BE763
:109680006B78062B7FF447AF6B881B0A212B19D010
:10969000222B7FF440AF6046FFF77EF91D498C23F3
:1096A00003FB07170246FB882946304602F09CF967
:1096B000204631E7902294204FF0D40E4FF09108CD
:1096C000674636E78C2303FB0713D3F88820002A6C
:1096D0003FF421AF13782946304603B0BDE8F0438C
:1096E00002F082B9EB88402B3FF615AF01EB0E027A
:1096F0003046294602F078F920460DE73A462946D9
:10970000304602F071F9012006E70C46A8E7002474
:10971000A6E700BF448C002000000000000000000D
:10972000F0ED00E070B5234CA2788A4282B06278F6
:10973000054612D08A4226D094F88E208A4294F8A8
:109740008D2030D08A4231D01B4B1B68DA0702D4FF
:10975000002002B070BD00BEFAE70020914213D095
:1097600000229BB204F14806114600933346FFF7EE
:1097700031F9A17832462846402302F0ADF860B1B5
:10978000012002B070BD00200C4A002AF8D09AB225
:1097900004F10801AFF30080F2E7074B1B68DB0719
:1097A000D6D500BED5E78C340120D7E78C34012014
:1097B000EAE700BF448C0020F0ED00E0000000006C
:1097C00070B500F124050446284601F04FF808B9A9
:1097D000002070BD6178002002F05EF80028F7D00C
:1097E00004F5067628463146402201F06BF805461E
:1097F00060B1034661783246002002F06DF840B94E
:10980000054B1B68DB07E3D500BE70BD617802F035
:1098100053F8284670BD00BFF0ED00E030B5164C9F
:1098200083B000210D464FF41672204616F054F90D
:1098300004F1380104F1100000950123802200F0AA
:10984000DDFF802204F1B8010123009504F124001A
:1098500000F0D4FF04F59C7101200DF05BFE04F5CF
:10986000C47103460120C4E907530DF053FEC4E957
:109870000C0503B030BD00BF3CB8002010B5084C4B
:10988000002304F11000C4E90033C4E9023301F0FD
:1098900063F904F12400BDE8104001F05DB900BF98
:1098A0003CB800202DE9F0434B79012B83B002D165
:1098B0008B79012B04D00025284603B0BDE8F08346
:1098C000CB79002BF7D10B78CC1806466578242D80
:1098D00099B20BD1914202D9EDE78A42EBD32378BA
:1098E0001C440B446578242D99B2F6D0042DE2D1A6
:1098F0006379012BDFD1A379032BDCD1E579002D2E
:10990000D9D1DFF8CC8098F8010098F8023050EAFD
:10991000030905D02B4B1B68DB07CCD500BECBE77A
:10992000A37888F8003027782079CB199DB2274496
:1099300030B922E03B7881451D44ADB21F441CD2B2
:10994000AA421AD37B78052BF4D1394630460192CE
:1099500001F07EFF019A68B3BB782079D90914BF62
:1099600088F8013088F80230397809F101030D4494
:109970005FFA83F9ADB20F44DCE7134800F090FFC3
:109980003F2899D998F80210002001F085FF00289F
:1099900092D00D4800F084FF3F2898F8021005D9B6
:1099A0000A4A4023002001F097FF85E7002001F0DC
:1099B00083FF81E7034B1B68DA077FF57CAF00BEAE
:1099C000054679E7F0ED00E04CB8002014BA00201D
:1099D0003CB8002000207047F8B52D4DAA788A4287
:1099E0001E4619D19AB205F5EC7105F1100001F08F
:1099F00011F8284B13B10020AFF30080264800F087
:109A00004FFF3F2805D9A978002001F045FF044603
:109A100068BB01242046F8BD6B788B4208D01F4BF1
:109A20001C6814F00104F5D000BE00242046F8BDE7
:109A300007462846FFF7C4FE0028EAD105F12400B6
:109A400000F014FF0028E4D1002EE2D016F03F060B
:109A5000DFD16978384601F01FFF04460028D8D0CE
:109A6000697838463346324601F036FFD2E70A4875
:109A700000F016FF3F28A97805D9094A40230020A5
:109A800001F02AFFC6E7002001F016FFC2E700BF81
:109A90003CB80020000000004CB80020F0ED00E0D1
:109AA00014BA002070B5324CE28AA36852BA92B25E
:109AB00086B0054612B1B3FBF2F292B2A06BD4F8B5
:109AC0001110B0FBF2F61B1AB3F5007F28BF4FF45C
:109AD000007309BA009302FB16023144254B607BE8
:109AE000FFF7BEF8011E1EDB0AD08BB2214A94F8A4
:109AF0002E10284601F0F0FE002833D006B070BDCD
:109B000094F82E300391072203A8CDE904118DF8B3
:109B10000C508DF80D208DF810308DF8111001F0DB
:109B20005FFD06B070BDA268A36B43F60220002162
:109B3000D31AA08784F83E1001200221A36284F882
:109B40002C0084F83010002AD8D0002BD6D0237BEC
:109B5000DB0914BF94F82E1094F82F10284601F05A
:109B6000FBFECBE7044B1B68DB07C7D500BEC5E790
:109B70005C8F00205C8D0020F0ED00E038B5214BBB
:109B8000214C05461BB1607BFFF7A2F8B0B1A06B7A
:109B9000A36894F82F101D4A1B1AB3F5007F28BF45
:109BA0004FF4007328469BB201F096FE00B138BD19
:109BB000174B1B68DB07FAD500BE38BDA26BA16846
:109BC00084F83E008B1A42F207720120A28702221B
:109BD000A36284F82C0084F830200029E7D0002B01
:109BE000E5D0237BDB0906D094F82E102846BDE88B
:109BF000384001F0B1BE94F82F102846BDE8384037
:109C000001F0AABED18C02005C8F00205C8D002088
:109C1000F0ED00E0044880F83C1080F83D2080F82A
:109C20003E300120704700BF5C8F00200248402278
:109C3000002115F051BF00BF5C8F00200248402278
:109C4000002115F049BF00BF5C8F00204B79082B25
:109C500001D0002070478B79062BFAD1CB79502B9D
:109C6000F7D1162A06D81C4B1B68D907F1D500BEC0
:109C70000020704770B5194D8B7885F82D300B7822
:109C800082B005F12F0205F12E0619440223CDE919
:109C900000261A46044601F063FD30B90E4A1268E8
:109CA000D2070FD500BE02B070BD204695F82F1028
:109CB00000241F232A4685F8304001F00DFE20B114
:109CC0001720F0E7002002B070BD034B1B68DB07D4
:109CD000F6D500BE1720E6E7F0ED00E05C8F00202F
:109CE000012901D00120704770B5137803F07F047B
:109CF000022C84B0054611D003F06003202B0AD15A
:109D00005378FE2B28D0FF2B05D153881BB9D6885A
:109D1000B3B2002B3CD0002004B070BD5478012CAD
:109D2000EAD15388002BF6D1374E938896F830202D
:109D3000042ADBB250D096F82E10994236D096F80D
:109D40002F409C4205D122B9214601F0F7FD0028A1
:109D500047D0012004B070BD5388002BDBD1D388DD
:109D6000012BD8D129488DF80F3030B10192FEF780
:109D7000C9FE019A01460028CDD04C1E2846114646
:109D800001230DF10F028DF80F4001F02DFEE0E7E9
:109D90001D4C11462846A687C4E90D3384F830309F
:109DA00084F83E3001F006FE0120B5E7022AD0D14A
:109DB000B26BB3689B1A0324B36206F120020D2331
:109DC00086F8304001F088FD0028C2D1104B1B6896
:109DD000DB07A0D500BE9FE7194601F0BDFD204678
:109DE0009AE72146284601F0D7FD0028B1D100238B
:109DF00086F8303096F82F10034A28461F2301F0CA
:109E00006BFD0028A5D1E1E75C8F0020058B0200E7
:109E1000F0ED00E02DE9F041AC4C94F83050012D0C
:109E20008EB01E46074670D0032D47D035B1022DA7
:109E300000F08A8001200EB0BDE8F08194F82F3048
:109E40008B42F7D11F2E40F09E80A14B22689A4290
:109E500040F09980E27B9F48636820626362012042
:109E6000A368A562282A84F82C50A56384F83000E2
:109E7000636300F0E3802A2A00F0C282002B00F026
:109E80003381207BC00940F02F81B3F5007F40F281
:109E90001D8394F83C20A3620120022384F82C0047
:109EA00084F8303022B942F2050384F83E20A387BB
:109EB000384601F051FD94F83050B8E794F82E3050
:109EC0008B42B7D10D2EB5D1E37B282B00F09082C9
:109ED0002A2B00F08582804B23B1607B04F10F01B7
:109EE000AFF30080002084F83000784A94F82F10F7
:109EF0001F23384601F0F0FC0028DCD1774B1B68AB
:109F0000DA0700F19980002095E7E37B282B12D037
:109F10002A2B59D0A36B227B3344D209A36347D0A9
:109F2000626B9A420DD96D4B1B68DB07C3D500BE2F
:109F300094F830507BE7D4E90D2333449342A36374
:109F400075D3022384F8303094F82E10384601F08F
:109F500023FD00287FF46EAFA368A26B934202D961
:109F6000217BC9091ED19B1A0325A36294F82E10E8
:109F70005B4A84F8305038460D2301F0ADFC0028D0
:109F80007FF458AFBAE7042394F82E1084F83030E9
:109F9000384601F0E1FC384694F82F1001F0DCFC63
:109FA000002048E794F82E10384601F0D5FC41E730
:109FB000A38E4C4A607B04F10F01FEF733FE0028AC
:109FC000C0F2EC81A36BABE7E08A40BA80B218B173
:109FD000A368B3FBF0F080B2D4F81110A26B414D2E
:109FE000B2FBF0F309BA00FB13221944607B009620
:109FF0002B46FEF74BFE0028C0F2308286425CD929
:10A00000361A002840F05882002194F82F2005913C
:10A01000072305A8CDE906168DF814708DF81910E0
:10A020008DF818208DF8153001F0DAFA43E7FFF7C4
:10A0300039FD94F83050FAE600BEFCE6E08A40BAFA
:10A0400080B2A3B900283FF47CAF94F83C300222E0
:10A05000002184F82C2084F83020A162002B7FF4AA
:10A0600073AF42F2050284F83E30A2876CE7257B8D
:10A07000ED090BD0002800F00A828342C0F049822B
:10A08000282A3846D3D0FFF779FD14E794F83C200E
:10A09000A362022384F82C3084F83030002A7FF445
:10A0A00007AF42F205020023A28784F83E30257BE9
:10A0B000ED09002D3FF4FCAEB7E1D4E90D233344A4
:10A0C0009342A363BFF43DAF3846DCE75C8F0020CA
:10A0D000555342435553425300000000F0ED00E059
:10A0E0007C8F00205C8D0020657B252A27D8DFE847
:10A0F00012F04F012600260011012600260026003E
:10A10000260026002600260026002600260026001F
:10A11000260026002600C200260026002600260073
:10A12000260026002600A800E200260026002600C1
:10A13000260026002600260082002600550094F8FE
:10A140003C20002A40F0D080BC4ABD499BB2284642
:10A15000FEF768FD0028C0F2C780002833D1A3684D
:10A16000002B3FF4EEAEA16B94F83C205B1A01206B
:10A170000221A36284F82C0084F8301022B942F244
:10A18000050184F83E20A187002B3FF4DDAE237B40
:10A19000DB0940F04A8194F82F1089E6284604AA8A
:10A1A00005A9FEF72DFD059B002B00F0A781BDF84A
:10A1B0001020002A00F0A281A049013B1BBA12BA6C
:10A1C000C1E900320820A368002B40F08881A36B0E
:10A1D00094F83C205B4201200221A36284F82C0009
:10A1E00084F83010002A7FF4AFAE42F2050384F801
:10A1F0003E20A387A8E605AE00230DF10E022846F7
:10A2000004A973600593B360FEF7FAFC049A002A70
:10A2100000F07481BDF80E30002B00F06F8112BA8F
:10A220005BBA08200221ADF81E3006928DF81700A7
:10A230008DF81C1096E80700804B83E807000C207F
:10A24000C1E7059B7F4A03F4000343F00303059332
:10A25000002A00F06C812846FEF73AFD9DF8163082
:10A26000764A80F0010060F3C7138DF81630059B25
:10A2700013600420A7E74FF02033284600221F2553
:10A280000692CDE90A33704E089307A909AA0793ED
:10A2900009930D930C938DF818500DAB05AD0596F1
:10A2A000FEF738FC0FCD654E0FC60FCD0FC62B68DD
:10A2B0003360242087E7654B002B3FF450AFE17CEF
:10A2C0002846C1F3400301F001020909FEF7B4FC7E
:10A2D00000287FF444AF94F83C302BB943F60222B7
:10A2E0000023A28784F83E30A268A36B94F83C1048
:10A2F0000120D31A84F82C000220A36284F83000D5
:10A3000021B942F2050084F83E10A087002A3FF4EC
:10A310001BAE39E794F83C2094F83D0094F83E10C9
:10A32000DFF818C1DFF830E14FF000084FF000030C
:10A33000CDE90588CDE9078862F303038DF816306F
:10A34000F0220A23ADF824808DF820008DF821102A
:10A350008DF814208DF81B3005AE0FCEACE80F0041
:10A360003368ACF80030BEF1000F00F0DA80ACF1D9
:10A37000100128464FF40072AFF300800028A4F8C3
:10A380003C8084F83E80BFF6E8AE657B636BDBE61D
:10A390002846FEF711FC00289DD0E0E6A268A36BDA
:10A3A00094F83C0084F82C50D11A0225A16284F85C
:10A3B000305020B942F2050584F83E00A587002AF6
:10A3C0003FF4AEAD00293FF4ABAD237BDB0900F0D9
:10A3D000A28094F82E10384601F0BEFAA36B9FE5D8
:10A3E0001B4B002B3FF47EAD607BFEF765FC79E5EF
:10A3F000184B002B3FF476AD607BAFF3008071E526
:10A40000E08A40BA80B2002B3FF41CAE257BED09F8
:10A410003FF430AE94F83C20A362022384F82C3041
:10A4200084F83030002A00F0848094F82E103846EA
:10A4300001F092FA94F83050F9E400BF5C8D0020EE
:10A440006B8F0020D18C020000800202398C020048
:10A45000B98C02000000000000000000A36BA2689D
:10A460003344D11A43F60220A3630023A08784F863
:10A470003E3001200223A16284F82C0084F83030A1
:10A48000002A3FF461AD00293FF45EAD7FE6012074
:10A4900094F83C2084F82C000220A36284F8300059
:10A4A000002A7FF406AE42F2050084F83E20A08721
:10A4B000002B3FF449ADFAE5A36B291813FA80F39A
:10A4C00032462846A36315F0EDFA9DE51C4A9BB27F
:10A4D000384601F001FA00287FF4EDAC0EE5984211
:10A4E00028BF184683B26063154A94F82E10384688
:10A4F00001F0F2F900287FF4DEACFFE494F83C3080
:10A50000002B7FF4F1AE43F6022284F83E30A2879E
:10A51000EAE60220BCE794F82F10384601F01CFA56
:10A5200050E5A4F83CE084F83EE012204BE6012020
:10A5300094E642F2050384F83E20A387B7E500BF06
:10A540005C8D00202DE9F041044600F09BFB10B922
:10A550000020BDE8F08100F09DFB06460028F7D101
:10A560004FF4E671DFF8608001FB04F404F1180594
:10A570004544284600F07AF90028E9D008EB0407A2
:10A580003046797801F088F90028E1D004F5C674E6
:10A59000444428462146402200F094F9054660B123
:10A5A0007978224630462B4601F096F940B9054BA2
:10A5B0001B68DB07CCD500BECBE7797801F07CF9CE
:10A5C0002846C6E7F0ED00E09C8F002030B5154C22
:10A5D00083B000210D464FF4E672204615F07CFA58
:10A5E00004F12C01201D00950123402200F006F902
:10A5F000402204F16C010123009504F1180000F0E1
:10A60000FDF804F1AC0101200CF084FF04F1FC0121
:10A6100003460120C4E904530CF07CFFC4E909059A
:10A6200003B030BD9C8F002010B5064C204600239F
:10A6300040F8043B00F090FA04F11800BDE8104027
:10A6400000F08ABA9C8F00204B79FF2B01D00020AC
:10A6500070472DE9F0412D4C6678A378334382B0E2
:10A6600003D0002002B0BDE8F0810D780E798B7820
:10A6700023700F460D4416B36B78052B0AD0AB1828
:10A680009D4202D306E0AB4204D929780D44697893
:10A690000529F8D1DFF87C80CDF8048008F10103AA
:10A6A000009332460223294601F05AF860B13B7903
:10A6B000A178C3EBC3031D4481B9637853B9E81B88
:10A6C00080B202B0BDE8F081114A1268D207C8D545
:10A6D00000BEC7E70020FFF735FFF0E7002001F0DC
:10A6E000DBF80028E9D008F1030000F0D9F83F2892
:10A6F00007D9A17808F24B124023002001F0ECF8B2
:10A70000DBE7A178002001F0D7F8D6E79C8F002086
:10A71000F0ED00E09D8F002070B5304CA2788A42A9
:10A7200011D062788A420BD12D4A1AB199B2002019
:10A73000AFF3008000F0A6FA18BB0125284670BDD3
:10A740000025284670BD9AB204F5A671201D00F0C0
:10A7500061F9244B13B10020AFF30080A1780020F1
:10A7600001F09AF805460028E7D01F4800F098F855
:10A770003F28A1782BD91D4A4023002001F0ACF8D6
:10A78000DFE700F087FA06460028D6D1184800F027
:10A790006DF80028D1D06178304601F07DF805468B
:10A7A0000028CAD013494022A1F5BA7000F08AF8F7
:10A7B0006178034678B10F4A304601F08DF80028E1
:10A7C000BBD10D4B1B68DB07B7D500BEB9E7002036
:10A7D00001F072F8B5E701F06FF8B2E79C8F002046
:10A7E0000000000000000000A08F0020E890002082
:10A7F000B48F002028910020F0ED00E02DE9F04119
:10A80000B2F5004F9DF818802CD80446C068164653
:10A810000F461D4618B14FF0FF310DF0BBF820690F
:10A8200018B14FF0FF310DF0B5F8C5F30E05E06833
:10A830002760002345EAC8356381E580A68023812F
:10A8400018B11A4619460CF0B5FC206938B100233E
:10A850001A4619460CF0AEFC0120BDE8F08101203B
:10A86000BDE8F0810020BDE8F08100BF0389428986
:10A87000808892B29BB2934236BFC2EB40029B1AD1
:10A880009B189BB2984228BF18467047028943899B
:10A8900090B29BB2C01AB0FA80F04009704700BF76
:10A8A00003894289808892B29BB2934236BFC2EB41
:10A8B00040029B1A9B189BB2984286BFC01A80B276
:10A8C000002070472DE9F04705460069884691460B
:10A8D00018B14FF0FF310DF05DF82B896C89AF880E
:10A8E0009BB2A4B2A34236BFC4EB47061E1BF618A8
:10A8F000B6B2002E4CD0B74242D34E4528BF4E468A
:10A90000A742B6B203D8E41BA4B2A742FBD9B5F85C
:10A91000069029683B1B9BB2C9F30E029E429146EA
:10A9200002FB041126D913FB02F3F71B1FFA83FA6B
:10A930003C445246404614FB09F415F0A5F829683A
:10A94000A2B208EB0A0015F09FF86A89AF8892B2AC
:10A9500093199BB29A421DD97A009B1A9BB228691F
:10A960006B8120B100231A4619460CF023FC3046B7
:10A97000BDE8F08702FB06F2404615F085F8E4E7F3
:10A98000BB422CBFDC1BDC19A4B26C813E46B4E791
:10A990006B899BB2B3EB470F4FEA4702DFDBDCE783
:10A9A00038B5044600690D4618B14FF0FF310CF080
:10A9B000F1FF22896389A18892B29BB29A4236BF85
:10A9C000C3EB4100D01A801880B200B3814209D293
:10A9D0008A422CBF531A53189BB29942638103D801
:10A9E0005B1A9BB29942FBD9E2882168C2F30E023E
:10A9F000284602FB031115F047F80125206920B114
:10AA000000231A4619460CF0D5FB284638BD0546EA
:10AA1000F4E700BF2DE9F04F154683B01AB30646A0
:10AA2000C068894618B14FF0FF310CF0B3FFF279DE
:10AA3000B6F808807389B788D2091FFA88F89BB2E4
:10AA400015D1984536BFC3EB4703A8EB0303434436
:10AA50009BB29F422CD80025F06820B100231A46F3
:10AA600019460CF0A7FB284603B0BDE8F08FBD42A5
:10AA700050D2984536BFC3EB4702A8EB03024244CD
:10AA800092B279002A448A4219DB03EB070A1FFAC3
:10AA90008AFAAAEB05081FFA88F8434558D9A8EBAB
:10AAA00001081FFA88F805EB080A1FFA8AFA0AE07B
:10AAB000FB1A9AB2954228BF1546002DCCD005EB63
:10AAC000080A1FFA8AFAB845444603D3E41BA4B225
:10AAD000BC42FBD2F3883068A7EB040B1FFA8BFB58
:10AAE000C3F30E02AB4502FB04001CD302FB05F2CC
:10AAF000494614F0C9FFB288C2454FEA420302D367
:10AB0000BAEB420F03DBAAEB030A1FFA8AFAA6F894
:10AB100008A0A1E7F188ED1BC1F30E0101FB059927
:10AB200098463D46C9E71BFB02FB1FFA8BFB0192CF
:10AB300049465A4614F0A8FFEF1B019B3068274492
:10AB400017FB03F292B209EB0B0114F09DFFD2E761
:10AB50004145B8DCA3E700BF10B50446C06818B192
:10AB60004FF0FF310CF016FF206918B14FF0FF31A4
:10AB70000CF010FFE06800236381238118B11A46AE
:10AB800019460CF017FB206920B100231A4619461C
:10AB90000CF010FB012010BD38B50446C0680D460E
:10ABA00018B14FF0FF310CF0F5FE206918B14FF0ED
:10ABB000FF310CF0EFFEE379E06865F3C713E37152
:10ABC00020B100231A4619460CF0F4FA206920B18E
:10ABD00000231A4619460CF0EDFA012038BD00BFDB
:10ABE0002DE9F041224C234E2278234D4FF00008EE
:10ABF000074643460FE02B6813EBC10331D05B6877
:10AC000038469847227808F101085FFA88F8111D44
:10AC10004145434609DB9B1A424508EB480103EBDB
:10AC20004303E8D806EBC303E9E7144B3722184681
:10AC3000002114F051FF4FF0FF32C0F80320C0F89C
:10AC40000720C0F80B20C0F80F20C0F81320C0F870
:10AC50001720C0F81B20C0F81F20A0F82320BDE853
:10AC6000F081074B1B68DB07F9D500BEBDE8F0811A
:10AC70006C910020A832040068910020C09100204F
:10AC8000F0ED00E0024B5878003818BF0120704703
:10AC9000C0910020024B1878C0F38000704700BFBD
:10ACA000C0910020024B1878FF3818BF0120704770
:10ACB000248100202DE9F043394D2B78FF2B83B000
:10ACC00003D0012003B0BDE8F08337220021044601
:10ACD000344814F001FF344901200CF01BFC334BC5
:10ACE000186000283AD0324E3346002733F80C0B58
:10ACF0007268718800970CF0B9F9B16806460CF0DB
:10AD0000F5FF2C4B1E60002E42D02B4B23B12B485D
:10AD1000AFF300802A4B1860284EDFF8AC80327801
:10AD2000274F4FF000094B460EE03B6813EBC00382
:10AD30001AD01B689847327809F101095FFA89F93E
:10AD4000111D49454B4617DB9B1A4A4509EB490043
:10AD500003EB4303E9D808EBC303EAE7194B1B688D
:10AD6000DC0705D500BEADE7164A1268D2070CD441
:10AD7000002003B0BDE8F08320462C7001F064F899
:10AD8000204601F063F801209CE700BE184699E7D1
:10AD90000C4B1B68D907EBD500BE304692E700BFCD
:10ADA00024810020C091002070910020F8910020A3
:10ADB000C8800020FC910020000000006C91002061
:10ADC00068910020F0ED00E0A83204002DE9F04F7A
:10ADD000DFF8008398F80030FF2B8DB031D00446A7
:10ADE0004FF47A7200238002A10D14F015FC0128A3
:10ADF00038BF0120AE4DDFF8D492DFF8DCA28346E5
:10AE0000661C286800F0CE80002C14BF5A46002231
:10AE100009A90CF063FCA0B19DF82530013B072B7C
:10AE200000F2B980DFE803F090AAB79B84401004D9
:10AE30000A9B0BB10B98984728680CF027FF002855
:10AE4000DED10DB0BDE8F08F9DF82810994B01F0D0
:10AE50007F0603EB460303EBD11393F825006FF352
:10AE6000000083F8250093F825006FF3820083F833
:10AE70002500002E00F0A7808F4ADB7C12789342D9
:10AE8000C0F09280101D9842C0F296809B1A8B4AA7
:10AE900003EB430302EBC3031E699DF829200B9BC0
:10AEA0009DF82400B047C7E7824E9DF824703378A0
:10AEB00043F00103337096F825306FF3000386F8F2
:10AEC000253096F825306FF3820386F8253096F802
:10AED00026306FF3000386F8263096F826306FF39D
:10AEE000820386F82630002000F0E2FD9DF828203D
:10AEF00002F06003602B0BD0402B6CD002F01F02DD
:10AF0000012A00F0EB80022A73D0002A00F0AF8003
:10AF1000D9F80030DE0700D500BE9DF824000021DE
:10AF200001F08AF99DF82400802101F085F983E77A
:10AF3000604B1B78DA077FF57FAF614B002B3FF446
:10AF40007BAFAFF3008077E79DF82400FFF748FE62
:10AF500000F0A4FD574B9DF828209A706CE7554BE4
:10AF60001A78D1077FF568AF564A002A3FF464AFDC
:10AF70001878C0F3C000AFF300805DE79DF82400AF
:10AF8000FFF72EFE00F08AFD4F4B002B3FF454AF2D
:10AF9000AFF3008050E7D9F80030DB077FF54CAF06
:10AFA00000BE49E7224633E7DAF8002003EB43030B
:10AFB00012EBC3037FF470AF444B1B68D8077FF5D7
:10AFC00040AF00BE3DE70B9B9DF829209DF8240073
:10AFD00000F080FD30E73E4800289ED000F068FD7C
:10AFE00038460AAA0121FDF7D5FE00287FF424AFD8
:10AFF00093E79DF82C1001F07F02082A88D806EB11
:10B00000420000EBD110DFF8B0C090F813E09CF8DC
:10B0100000005200019286454FEAD112029280F060
:10B02000B480DAF800000EEB4E0C00EBCC0200927C
:10B03000002B40F0C6809DF8290000F0FD03012B95
:10B0400000F0A38100287FF463AF019B029A334490
:10B050001344384693F825600DF12202C6F34006EA
:10B0600002230AA9ADF8226000F0BEFCE4E6202B22
:10B070006AD0002B7FF44CAF9DF82930092B3FF6A6
:10B0800047AF01A252F823F025B2020009B2020034
:10B0900011AF0200CBB2020011AF0200B1B2020048
:10B0A0005DB2020011AF020047B20200D5B102004A
:10B0B000FC910020C09100206C910020A832040077
:10B0C000000000000000000000000000F0ED00E0C3
:10B0D000958D020024810020689100209DF82C307D
:10B0E0000F2B3FF61AAFBE4A33441278DB789342F7
:10B0F00040D2DAF8006003EB430316EBC3063FF4DB
:10B100000CAFF06800F0D4FCF3680AAA01213846BD
:10B11000984700287FF490AE9DF8283013F0600621
:10B120007FF4FBAE9DF829300A3B012B3FF6F5AECC
:10B1300000F0BEFC9DF829300A2B0AA9384600F021
:10B14000718100F037FC77E69DF82C300F2B3FF62D
:10B15000E4AEA34A33441278DB78934280F00A814C
:10B16000DAF8006003EB430316EBC3063FF4D5AEF9
:10B17000F0681BE0111D9942FFF6CFAE9B1A994A69
:10B1800003EB430302EBC306BBE700F1040CF445F9
:10B190001BDB944AAEEB000000EB400002EBC00268
:10B1A0000092002B3FF447AF009EF06800F080FC57
:10B1B000F36838460AAA0121984700287FF43CAE7C
:10B1C000ABE6002A3FF4A9AEEEE7002B7FF4A5AE74
:10B1D000009330E79DF82A3002931A4673789A421A
:10B1E0000BD07378002B40F0A481029B002B40F021
:10B1F00030817D4B0BB1AFF30080029B73703846FA
:10B200000AA900F0D7FB17E6BDF82A30012B7FF41E
:10B2100084AE337838466FF3C3030AA9337000F065
:10B22000C9FB09E633789E0806F00206C3F3401313
:10B230001E43384602230DF122020AA9ADF822600E
:10B2400000F0D2FBF8E573788DF822303846012300
:10B250000DF122020AA900F0C7FBEDE5BDF82A00B6
:10B26000030A5A1EC0B20E2A3FF657AE01A151F88A
:10B2700022F000BF13B30200E7B2020065B3020080
:10B280001BAF02001BAF02003FB30200E7B2020097
:10B290001BAF02001BAF02001BAF02001BAF02007E
:10B2A0001BAF02001BAF02001BAF02002BB302005A
:10B2B0000AA800F003FC9DF82A10384600F0CCFDE7
:10B2C000337843F002033370B6E5BDF82A30012B22
:10B2D0007FF423AE3378384643F008030AA933706D
:10B2E00000F068FBA8E5022B00F06A813F4B002BC1
:10B2F0003FF413AEAFF300800246002A3FF408AEDD
:10B30000538838460AA900F06FFB00287FF494ADFB
:10B3100003E6FDF703FB122302460AA9384600F0B4
:10B3200063FB00287FF488ADF7E5314B002B3FF439
:10B33000F4ADFDF72BFD02460028E1D1E8E52D4BE9
:10B34000002B3FF4EAADAFF30080024600283FF443
:10B35000E4AD137838460AA900F046FB00287FF4D4
:10B360006BADDAE5BDF82C10FDF7E2FA02460028D5
:10B37000EFD1D2E5111D9942FFF6CFAD9B1A194AC4
:10B3800003EB430302EBC306F2E6BDF82A30029357
:10B390006BB9019B33441A46CB09134401289E46DE
:10B3A0002AD003F1200293F82530980742D5009B5C
:10B3B000002B3FF441ADD86800F07AFB009B0AAA4D
:10B3C000DB68012138469847002000F071FB96F8B1
:10B3D0002630DB073FF530AD0AA93846B1E600BF9D
:10B3E0006C910020A8320400000000000000000062
:10B3F0008D8D0200000000009EF82520920703F1C9
:10B400002003D4D598F80000019300F039FF019B88
:10B4100002995A7961F341025A715A7961F3000233
:10B420005A71C4E701230DF122028DF8226000F069
:10B43000DBFA01E598F80000019200F0FDFE019AA8
:10B44000537943F002035371537943F0010353716D
:10B45000ADE7581EC0B2FDF765FA002862D0437808
:10B46000022B5FD1C2793178C2F340131B01C2F3C2
:10B47000801221F0300143EA42130B4333704388BA
:10B480000697CDE900B4C318049300F10901049BA9
:10B490008B425FD94B780B2B56D04FF0010B042B0E
:10B4A0007AD1049B5A1A484B002792B21B78059216
:10B4B000039719E0DAF8004014EBC2046CD0A368DB
:10B4C000059A0698079198470828079907F10103FC
:10B4D000024602D90598904246D2DFB23A4B039712
:10B4E0001B781A1D97421BDC039ABB42A2EB030494
:10B4F00004EB440407EB4702DCD8344B03EBC404F1
:10B50000DDE73B46324807920591FCF763FE2E4B80
:10B51000079A05991B781144039A04339A42B6DDC1
:10B52000DDE900B4D9F80030D9077FF5F1AC00BEF1
:10B53000EEE4384600F036FDB37800933846FFF766
:10B540004FFB009BB37050E60B7891F803B01944A1
:10B550004B78A4E71F4B069FDDE900B4002B3FF4B6
:10B560004CAEAFF3008048E6BBF1010F1CD0BBF13D
:10B57000000FC6D091F802E0002302E0A345C77097
:10B58000BFD90EEB030056FA80F0013390F803C0E8
:10B59000BCF1FF0FDCB2F1D0D9F80030D807DDE9FB
:10B5A00000B47FF5B5ACC2E7A3680B4C0B48A342CF
:10B5B00008BF4FF0020B834208BF4FF0020BD9E7E0
:10B5C000FDF7B0F9024698E66C910020A83204001D
:10B5D000D39100200000000099900200A59802007D
:10B5E0002DE9F0474278023A84B006468946032A9C
:10B5F00000F2A480DFE802F03A551802524B1A78A4
:10B60000D1070ED51A7851496FF3820208681A7073
:10B61000B9F1000F15D14B4631464FF0FF320BF018
:10B62000C9FD04B0BDE8F087474B1A78D007F8D5BC
:10B630001A78464942F0040208681A70B9F1000FFE
:10B64000E9D00023314601AA01930BF099FF019B39
:10B65000002BE6D03E4B4FF080525A6040BFBFF304
:10B660004F8FBFF36F8F04B0BDE8F087364A37497C
:10B67000137808686FF300031370117800236FF3D9
:10B68000410111705370117863F382011170B9F1A7
:10B69000000FD7D14B4631464FF0FF320BF08AFDF9
:10B6A000BFE72C4FDFF8B0803978DFF8B0A0002476
:10B6B00025460AE0DAF8002012EBC3020ED101346D
:10B6C000E4B20B1DA342254610DBA14204EB440368
:10B6D000F0D86D1A05EB450508EBC5025369002B40
:10B6E000EDD07168307898473978E8E7164B1A78CA
:10B6F000520796D51A7815486FF382021A7031787E
:10B70000006800230522CDE9013303938DF804106E
:10B710008DF80520B9F1000F06D14B4601A94FF075
:10B72000FF320BF047FD7CE701A96A4600930BF05E
:10B7300027FF009B002B3FF474AF8BE7034B186887
:10B7400000297FF47EAF66E7C0910020FC910020C5
:10B7500000ED00E06C910020A83204006891002008
:10B760002DE9F84F0A9F002A3ED0DFF88890DFF8D5
:10B7700088800C461E4615464FF0000B18E098F8DE
:10B78000021099F800A0FCF7F1FC03462146504650
:10B79000E3B100F073FBF0B1A378DA0916BF0B9A9E
:10B7A0003B70137023780BF1010BAB451C441BD08D
:10B7B0006378052B20460ED1E17801F00301B142F8
:10B7C00009D1A37803F07F03082BD8D9084B1B6855
:10B7D000DA0700D500BE064B1B68DB0702D4002049
:10B7E000BDE8F88F00BEFAE70120BDE8F88F00BF82
:10B7F000F0ED00E024810020C091002030B5124D12
:10B8000085B000230824CDE90201019328688DF852
:10B8100005403AB9134601A94FF0FF320BF0CAFCBC
:10B8200005B030BD6A4601A900930BF0A9FE009B4C
:10B83000002BF5D0054B4FF080525A6040BFBFF34C
:10B840004F8FBFF36F8FEBE7FC91002000ED00E01E
:10B8500038B58B7803F07F03082B06D90B4B1B6898
:10B86000DB0700D500BE002038BD094A094B0C4655
:10B87000204691781D78FCF779FC0028EED021460F
:10B880002846BDE8384000F0F9BA00BFF0ED00E00E
:10B89000C091002024810020CB090548054A2533AA
:10B8A00001F07F0103EB410108441168FCF714BC6F
:10B8B000C0910020F8910020CB090548054A2533A6
:10B8C00001F07F0103EB410108441168FCF730BC33
:10B8D000C0910020F8910020154838B501F07F058F
:10B8E00000EB450000EBD11420346079C00706D589
:10B8F000104B1B68DA0700D500BE002038BD657903
:10B900000D4845F001050078657100F095FB0028B1
:10B91000F4D16379074A60F300036371637960F3DC
:10B92000820363711368DB07E7D500BE38BD00BF33
:10B93000C0910020F0ED00E024810020054B01F0D3
:10B940007F0203EB420303EBD11191F8250000F0D5
:10B9500001007047C091002010B50D4B01F07F022F
:10B9600003EB420303EBD11494F825309B0700D579
:10B9700010BD084B2034187800F05EFC637943F06A
:10B9800002036371637943F00103637110BD00BF6B
:10B99000C091002024810020054B01F07F0203EBC1
:10B9A000420303EBD11191F82500C0F3400070472A
:10B9B000C09100200B4630B40A4C4968054618680F
:10B9C000224603C293F9002000239A42C4E90233BD
:10B9D0002846A8BF802130BCB8BF19461A46FFF7D9
:10B9E0007BBF00BFC0920020F0B50C46284F4968CD
:10B9F00006462068BA603D4603C50021F981E58806
:10BA0000AB4228BF2B4683B0BB81A5B11BB352B359
:10BA100097F90000402B28BF402300282ADB1D4A4D
:10BA20003046FFF759FF98B91B4B1B68DB071ED543
:10BA300000BE03B0F0BD94F90030002BACBF8021F4
:10BA4000002130462B462A46FFF746FF0028EBD060
:10BA5000012003B0F0BD97F90020002AACBF1946C1
:10BA600080211A46DCE70C4B1B68D9070CD4002058
:10BA700003B0F0BD1146074801931A4614F004F8CC
:10BA8000044A019B8021CBE700BE1046E1E700BFDE
:10BA9000C0920020D4920020F0ED00E0034B002281
:10BAA000C3E90022C3E902221A617047C092002054
:10BAB000014B1861704700BFC09200200346044A42
:10BAC00059680068134603C30023C2E90233704774
:10BAD000C0920020F0B5414C2578C909B1EBD51FC3
